:100000000C940F040C942C040C942C040C942C04CD
:100010000C942C040C942C040C942C040C94AD1112
:100020000C942C040C942C040C94FE090C942C04B9
:100030000C942C040C942C040C942C040C942C0480
:100040000C94B4070C942C040C9474040C949A042F
:100050000C942C040C9432120C942C040C942C044C
:100060000C942C040C942C042907001B5B31393BA5
:1000700031480048003B001B5B001B5B4B001B5BD7
:1000800032313B31480007001B5B4B001B5B3139B1
:100090003B3148004442473420004442473320006B
:1000A0004442473220004442473120001B5B313636
:1000B0003B3148005D3A0D0A004465627567417244
:1000C0007261795B302E2E3078001B5B324A001B48
:1000D0005B48003A2000202020003A20003A20000F
:1000E0002D2D2041444E53323631302054657374E7
:1000F0002070726F6772616D202D2D0D0A0D0A4DF3
:1001000041202D2053686F772074686520206D6131
:10011000696E2073637265656E0D0A4445202D205B
:1001200053686F7720746865202064656275672066
:1001300073637265656E0D0A4545202D2044756D0B
:1001400070207468652020454550524F4D206D65E4
:100150006D6F72790D0A4D45202D2044756D70200C
:10016000746865202052414D206D656D6F72790D68
:100170000A4845202D2053686F77207468697320E2
:1001800068656C702070616E656C0D0A3F20202DD3
:100190002053686F7720746869732068656C7020DD
:1001A00070616E656C0D0A0D0A46435720202320AE
:1001B00020536574206672657120636F6172736588
:1001C0002077697065720D0A46465720202320204B
:1001D00053657420667265712066696E6520202003
:1001E00077697065720D0A50572020202320205314
:1001F000657420706F776572202020202020207782
:10020000697065720D0A4F4E202020202020547501
:10021000726E207472616E736475636572206F6EA6
:100220000D0A4F462020202020205475726E207425
:1002300072616E736475636572206F66660D0A0085
:100240001B5B324A001B5B48001B5B4A001B5B3197
:10025000353B3148001B5B31303B3148001B5B387C
:100260003B313548001B5B373B313548001B5B3366
:100270003B323248001B5B323B323248001B5B3260
:100280003B3848001B5B313B323248004F6666000A
:10029000204F6E001B5B313B31304800537461745A
:1002A00075733A20202D2D2D207C20467265713AE1
:1002B00020202D2D2D2D207C0D0A437572722020BB
:1002C0003A20202D2D2D207C20506F7765723A200A
:1002D000202D2D2D207C0D0A5663632020203A20EE
:1002E00078787878207C2050574D203A2020202D97
:1002F0002D2D207C0D0A5663202020203A2078786E
:100300007878207C20506F7765723A20202D2D2D33
:10031000207C0D0A2D2D2D2D2D2D2D2D2D2D2D2D0E
:100320002D2B2D2D2D2D2D2D2D2D2D2D2D2D2D2B01
:100330000D0A0D0A46726571204320203A203132A1
:10034000385C0D0A506F7765725365743A20323508
:10035000355C0D0A0D0A001B5B324A001B5B48002E
:1003600030313233343536373839414243444546EB
:100370001027E80364000A00303132333435363751
:10038000383941424344454600CA9A3B00E1F505ED
:100390008096980040420F00A086010010270000C0
:1003A000E8030000640000000A0000004F46460D0C
:1003B0000A004F4E0D0A00496E7075743220004FCE
:1003C00046460D0A004F4E0D0A00496E7075743195
:1003D00020005479706520273F2720666F722068BF
:1003E000656C700D0A00292C206D75737420626590
:1003F000203020746F2000426164206F72206F757E
:1004000074206F662072616E67652077697065720F
:100410002028005479706520273F2720666F7220BE
:1004200068656C700D0A00292C206D75737420624C
:1004300065203020746F2000426164206F72206F4D
:100440007574206F662072616E67652077697065CC
:10045000722028005479706520273F2720666F722C
:100460002068656C700D0A00292C206D757374204E
:100470006265203020746F2000426164206F72201A
:100480006F7574206F662072616E67652077697082
:1004900065722028005479706520273F2720666FF9
:1004A000722068656C700D0A0020746F2000292C82
:1004B000206D7573742062652000426164206F7244
:1004C000206F7574206F662072616E676520706F93
:1004D0007765722028005479706520273F272066B1
:1004E0006F722068656C700D0A0020746F200029FF
:1004F0002C206D7573742062652000426164206F4A
:1005000072206F7574206F662072616E6765206659
:1005100072657175656E63792028005472616E731F
:100520006475636572204F4E005472616E7364751A
:10053000636572204F464600606D3200606D1400A6
:10054000640000C82C01002C010053617665642012
:10055000617320736574757020004C6F616465640D
:1005600020736574757020005479706520273F27CB
:1005700020666F722068656C700D0A00290D0A00F4
:10058000556E7265636F676E697A6564206D6F641E
:100590006520617267756D656E74202800436F6E0B
:1005A0007374616E74207769706572206D6F646515
:1005B0000020207468656E20656E74657220226F5D
:1005C0006E2220746F20626567696E2063616C69BA
:1005D00062726174696F6E0D0A00446973636F6EB5
:1005E0006E656374207472616E73647563657220E6
:1005F00066726F6D2073797374656D2C0043616C46
:100600006962726174696F6E206D6F64650D0A0DA9
:100610000A00436F6E7374616E7420667265717543
:10062000656E6379206D6F646500207469636B7318
:100630002E0052756E20666F72200054797065200E
:10064000273F2720666F722068656C700D0A0029AD
:100650002C206D75737420626520706F73697469E6
:100660007665206E756D6265722E0D0A00426164BA
:10067000206F72206F7574206F662072616E6765DF
:100680002072756E2074696D6520280052756E2089
:10069000636F6E74696E756F757300437572726502
:1006A0006E74206D6F64653A200054797065202760
:1006B0003F2720666F722068656C700D0A00292C38
:1006C000206D7573742062652050206F72206E6FEC
:1006D0007468696E672E0D0A00556E7265636F67E8
:1006E0006E697A656420696E707574206D6F6465DB
:1006F0002028005479706520273F2720666F7220DC
:1007000068656C700D0A00292C206D757374206269
:100710006520552C2058432C20504F2C206F7220E0
:1007200045532E0D0A00556E7265636F676E697AC8
:10073000656420696E707574206D6F646520280093
:10074000202B7072696E74003A20004D6F64652032
:10075000490054696D65642000436F6E74696E755D
:100760006F75730D0A004F75747075743A20002010
:100770006D61782057617474730D0A00487A2C20DB
:10078000005864756365723A20003A0D0A0020280B
:1007900063757272656E74290053657475702000FC
:1007A000436F6E7374616E7420667265712F706F23
:1007B0007765720043616C696272617465004465BB
:1007C00062756720776970657200556E7573656430
:1007D00000537769746368207472616E7364756323
:1007E00065720050757368206F6E2F5075736820A6
:1007F0006F6666207472616E73647563657200451E
:1008000053746F700044696666203A20004C6F771D
:1008100065723A200055707065723A20000011240C
:100820001FBECFEFD8E0DEBFCDBF13E0A0E0B1E048
:10083000ECE6FEE202C005900D92A038B107D9F7B0
:1008400013E0A0E8B3E001C01D92A738B107E1F7BB
:100850000E9440110C9434170C940000282F8091B2
:10086000C1008F7D8093C100E091CF03EF5F9E2F89
:100870009F73E1508091D003981711F490E007C066
:10088000F0E0E957FC4F20879093CF0391E08091EF
:10089000C10080628093C100892F08958091C100BA
:1008A0008F778093C1009091D2038091D1038917F3
:1008B00011F4E0E009C0E92FF0E0E957FC4FE081D6
:1008C0009F5F97709093D2038091C100806880935E
:1008D000C1008E2F089520E09091CF038091D00326
:1008E000981321E0822F08951F920F920FB60F9256
:1008F00011242F938F939F93EF93FF932091C60022
:10090000E091D103EF5F9E2F9770E1508091D20369
:10091000981731F0F0E0E957FC4F20839093D10312
:10092000FF91EF919F918F912F910F900FBE0F909C
:100930001F9018951F920F920FB60F9211248F934C
:100940009F93EF93FF939091D0038091CF038917EA
:1009500061F0E92FF0E0E957FC4F80858093C600F5
:100960009F5F9F739093D00305C08091C1008F7DDE
:100970008093C100FF91EF919F918F910F900FBED7
:100980000F901F9018958CE4E7E8F3E0DF011D92CB
:100990008A95E9F7E4E6F0E080818D7F808310920C
:1009A000C50083E38093C400E0ECF0E080818D7F9C
:1009B000808386E08093C20088E98093C1005098CC
:1009C000589A08950F931F938C018BE690E00E9434
:1009D000EB0BC8010E94F90B88E690E00E94EB0B3C
:1009E0001F910F9108958EE790E00E94EB0B8AE72C
:1009F00090E00E94EB0B80E091E00E94F90B0895DB
:100A000085E1E3EDF3E0DF011D928A95E9F71092AD
:100A1000E8030E94F304089587E790E00E94EB0B3F
:100A200085E190E060E00E944C0B85E790E00E9439
:100A3000EB0BA3EDB3E0FD0101900020E9F7EA1B09
:100A4000FB0BCF01059660E00E944C0B83E790E022
:100A50000E94EB0B0895DF92EF92FF920F931F938A
:100A6000CF93DF937C01EB0121C0D02E103231F106
:100A7000812F90E00E94EB16892B29F0812F90E0C6
:100A80000E94F216182F802F90E00E94EB16892BFF
:100A900029F0802F90E00E94F216D82E1D1511F03B
:100AA00080E00DC00894E11CF11C2196F701108133
:100AB00008811123D1F680E0002309F481E0DF9161
:100AC000CF911F910F91FF90EF90DF900895CF93FA
:100AD000DF930E943F090E944409EC0166E071E047
:100AE0000E942B05882399F48091060590910705B3
:100AF00081549D4429F4CE010E949A088823F1F57F
:100B0000CE0169E071E00E942B05882319F081E491
:100B10009DE41AC0CE016BE071E00E942B05882392
:100B200039F4CE016EE071E00E942B05882319F0A4
:100B300085E498E409C0CE0160E171E00E942B05D4
:100B4000882329F085E494E40E94E20A17C08CE827
:100B500090E00E94EB0B88E890E00E94EB0B83E1B1
:100B600091E00E94F90BCE010E94F90B8AE291E01C
:100B70000E94F90B86E890E00E94EB0BDF91CF9189
:100B800008950F931F93DF93CF9300D000D000D030
:100B9000CDB7DEB7082F882309F456C08830D1F4CA
:100BA0008091E803882309F44FC00E940C05E0916E
:100BB000E803E150E093E803F0E0ED52FC4F1082CF
:100BC000098380E28A830B831C82CE0101960E94F6
:100BD000F90B3AC08D3029F489838AE08A831B821D
:100BE00006C08A3019F089831A8201C019820E94D6
:100BF0000C05CE0101960E94F90B0D3041F00B312E
:100C0000A9F483ED93E069E071E00E94321603EDF0
:100C100013E0C8010E94670585E1F80111928A95E9
:100C2000E9F71092E8030E94F3040EC00A3061F065
:100C30008091E803843140F4E82FF0E0ED52FC4F5E
:100C400000838F5F8093E80326960FB6F894DEBF8B
:100C50000FBECDBFCF91DF911F910F9108951092DC
:100C6000EB031092EA031092ED031092EC03109242
:100C7000EF031092EE031092F1031092F003E0E004
:100C8000F2E080E090E003C011921192019680386A
:100C90009105D0F31092F3031092F2038FEF80933B
:100CA000E9030895AC012091E9032223A9F0809182
:100CB000F2039091F303FC01EE0FFF1FE050FE4F93
:100CC0005183408301968F7790709093F3038093C4
:100CD000F20321502093E903089580E48093E9030F
:100CE000089586EA90E00E94EB0B8091EA039091D0
:100CF000EB036AEF0E944C0B0E94E40B80EA90E049
:100D00000E94EB0B8091EC039091ED036AEF0E943F
:100D10004C0B0E94E40B8AE990E00E94EB0B80915F
:100D2000EE039091EF036AEF0E944C0B0E94E40BDC
:100D300084E990E00E94EB0B8091F0039091F10325
:100D40006AEF0E944C0B0E94E40B08958CEA90E03D
:100D50000E94EB0B0E9471060E940C0508958FEC17
:100D600090E00E94EB0B8AEC90E00E94EB0B89EB89
:100D700090E00E94EB0B80E00E94320B80E80E9422
:100D8000320B84EB90E00E94EB0B80E092E060E895
:100D900070E00E9420070E94A60608950F931F93FB
:100DA000082F892F162F1150102379F00E94320B33
:100DB000802F0E94320B8AED90E00E94EB0B86EDB3
:100DC00090E00E94EB0B1150D1F71F910F91089505
:100DD000EF92FF920F931F93CF93DF93EC018B0160
:100DE00060E10E94CE0620C07E01CE018F7090701F
:100DF000892B61F40E94E40B8D2F0E94320B8C2F03
:100E00000E94320B83ED90E00E94EB0BF999FECF2C
:100E10002196F2BCE1BCF89A80B50E94320B80E2C8
:100E20000E940C0B0150104001151105E9F60E94BB
:100E3000E40BDF91CF911F910F91FF90EF900895F8
:100E40000F931F93CF93DF93EC018B0160E10E941E
:100E5000CE0619C0CE018F709070892B61F40E946C
:100E6000E40B8D2F0E94320B8C2F0E94320B8DEDE4
:100E700090E00E94EB0B89910E94320B80E20E946D
:100E80000C0B015010400115110521F70E94E40BD5
:100E9000DF91CF911F910F9108959C01F999FECF99
:100EA00032BD21BDF89A80B508959C01F999FECF15
:100EB0001FBA32BD21BD60BD0FB6F894FA9AF99AF7
:100EC0000FBE089580E090E064EF73E045EB50E0E2
:100ED00025E537E00E945516089584EF93E060E021
:100EE00070E045EB50E02DE437E00E94391608959C
:100EF00010926E003091DF0426B586B52817E1F711
:100F000081E080936E00932F80E0820F911D2091ED
:100F1000DD043091DE04AC01421B530BE091DB0495
:100F2000F091DC0441935193F093DC04E093DB04F3
:100F30009093DE048093DD04EB5DF44030F089EAA9
:100F400094E09093DC048093DB040895E9EAF4E0F4
:100F500020E030E081919191280F391F84E0EB3D32
:100F6000F807C1F7C901089578941F920F920FB640
:100F70000F9211248F938091DF048F5F8093DF04A1
:100F80008F910F900FBE0F901F901895E9EAF4E033
:100F900087E3DF011D928A95E9F7F093DC04E09383
:100FA000DB04E4E6F0E080818F7D808314BC87E081
:100FB00085BD16BC81E080936E0008950E940C05EB
:100FC000089585E492E00E94EB0B80E492E00E9499
:100FD000EB0B80EE90E00E94EB0B0E940C05089555
:100FE000EDE6F0E0808180628083EBE6F0E08081D6
:100FF0008260808355985D9A2198299A1092E20424
:101000001092E30489B190E055E0969587955A9542
:10101000E1F721E030E08227932781708093E40498
:1010200083B190E09695879582279327817080936E
:10103000E5041092E0041092E10408956091E40444
:1010400089B1262F30E090E0A5E096958795AA9586
:10105000E1F741E050E084279527817090702817D0
:10106000390781F083E08093E00489B190E0F5E0F6
:1010700096958795FA95E1F7842795278170809357
:10108000E4040CC08091E004882341F081508093F7
:10109000E004882319F4862F0E94280F6091E5044C
:1010A00083B1262F30E090E09695879541E050E09F
:1010B00084279527817090702817390769F083E09D
:1010C0008093E10483B190E09695879584279527D6
:1010D00081708093E5040CC08091E104882341F085
:1010E00081508093E104882319F4862F0E94F40E26
:1010F00089B190E065E0969587956A95E1F78095CE
:101100009095817090709093EB038093EA038091A7
:10111000E5048093EC031092ED0308958DE492E0D2
:101120000E94EB0B89E492E00E94EB0B81E080933C
:1011300080030895CF93DF93EC010E945C0F882316
:1011400071F4CE010E942213882349F4CE0160E09D
:1011500073E00E942B05882319F00E948E0881E01D
:10116000DF91CF9108950F931F938C016AE070E097
:101170000E949816CB0163E00E944C0B8EE20E9405
:101180000C0BC8016AE070E00E949816805D0E9416
:101190000C0B1F910F91089580910F05893C09F464
:1011A0005BC084E992E00E94EB0B5F9903C080E989
:1011B00092E002C08CE892E00E94EB0B84E892E09F
:1011C0000E94EB0B809118059091190565E00E9433
:1011D0004C0B8DE792E00E94EB0B80911A059091E9
:1011E0001B050E94B30885E792E00E94EB0B8091FB
:1011F0001C0590911D050E94B3088DE692E00E94A7
:10120000EB0B80912205909123050E94B30885E69F
:1012100092E00E94EB0B809126059091270565E0F6
:101220000E944C0B8DE592E00E94EB0B809124050F
:10123000909125050E94B30885E592E00E94EB0B92
:101240000E94710680918003882311F00E94F304AC
:10125000109280030E940C0508958CE593E00E9493
:10126000EB0B87E593E00E94EB0B8CE992E00E9488
:10127000EB0B81E0809380030E94CC08089590934B
:10128000E7048093E6040895CF92DF92FF920F93D4
:101290001F93CF93DF938AE0E8EEF4E0DF011D9225
:1012A0008A95E9F705C02196D093E704C093E60438
:1012B000C091E604D091E7046881662389F083E059
:1012C00093E070E00E942716009769F709C0F801C3
:1012D000F1928F012196D093E704C093E60403C0F6
:1012E00008EE14E06801C091E604D091E704F880AC
:1012F000FF2089F083E093E06F2D70E00E942716B5
:10130000009749F4F60101900020E9F73197E85E73
:10131000F4403A97E0F288EE94E0DF91CF911F918C
:101320000F91FF90DF90CF900895EF92FF920F936F
:101330001F93CF93DF9380916F008F7D80936F0019
:101340002091F6043091F7046091FA047091FB0447
:10135000C091F804D091F9041092F7041092F604A9
:101360001092FB041092FA041092F9041092F804FF
:1013700080916F00806280936F002115310549F4E0
:101380001092FD041092FC041092FF041092FE04CF
:1013900024C0790100E010E080E090E028EE33E026
:1013A00040E050E00E947916A80197010E94AC1617
:1013B0003093FD042093FC04BE0180E090E020E027
:1013C00034E244EF50E00E947916A80197010E9490
:1013D000AC163093FF042093FE04DF91CF911F9150
:1013E0000F91FF90EF9008958091FC049091FD047F
:1013F00008958091FE049091FF04089578941F92BF
:101400000F920FB60F9211242F933F934F935F9338
:101410006F937F938F939F9380910005815080936A
:10142000000518160CF459C08091810086FD0EC08D
:1014300080918600909187009093F3048093F2044A
:101440001092010580918100806445C08091010562
:10145000882361F480918600909187009093F50431
:101460008093F40481E08093010537C040918600A9
:10147000509187006091F4047091F504461B570B5E
:101480008091F6049091F704840F951F9093F704D0
:101490008093F6048091F2049091F3042091FA0471
:1014A0003091FB04820F931F840F951F861B970BAF
:1014B0009093FB048093FA048091F8049091F904CE
:1014C00001969093F9048093F8048AE080930005D4
:1014D000809181008F7B809381009F918F917F917C
:1014E0006F915F914F913F912F910F900FBE0F9091
:1014F0001F90189580E1E2EFF4E0DF011D928A95DC
:10150000E9F78AE080930005E4E6F0E08081877FD8
:1015100080831092800081E080938100109285008A
:1015200010928400EFE6F0E080818062808308956D
:101530000F931F938C0186E093E00E94E204812FB9
:101540000E940C0B802F0E940C0B1F910F9108958D
:101550000E948F119B01AC018091020590910305BF
:10156000A0910405B0910505281739074A075B07C4
:1015700040F12F5F3F4F4F4F5F4F20930205309355
:10158000030540930405509305058091060590914D
:10159000070528E48534920761F02DE48134920731
:1015A00029F024E48534920751F406C00E94CC0847
:1015B00008950E94DE0708950E94A60608950E94DD
:1015C000980A0895909307058093060528E48534CA
:1015D000920761F02DE48134920729F024E48534E8
:1015E000920751F406C00E942D0908950E94E10758
:1015F00008950E94AF0608950E94980A08951092D7
:10160000020510920305109204051092050581E46D
:101610009DE40E94E20A08951F93182F812F0E94D3
:101620002E048823D9F31F9108950F931F93CF930E
:10163000DF93182FC0E0D0E001E3812F8095881F51
:101640008827881F902F981B892F0E940C0B2196AA
:10165000C830D10511F0110FF0CFDF91CF911F915C
:101660000F9108951F93CF93DF93182F82958F705A
:10167000C0E6D3E0FE01E80FF11DE4918E2F0E9439
:101680000C0B1F70C10FD11DFE0184910E940C0B29
:10169000DF91CF911F9108955F926F927F928F9209
:1016A0009F92AF92BF92CF92DF92EF92FF920F93F1
:1016B0001F93CF93DF933C01162F65361CF460E235
:1016C000562E03C0145650E3552E40E7A42E43E097
:1016D000B42E00E035E0E32EF12CF50185919491D4
:1016E00020E3922E03C0681A790A9394681679064B
:1016F000D0F780E3981619F4002309F526C00023DB
:10170000F1F41116E4F4812F992787FD90958E1539
:101710009F050CF41E2DC0E0D0E0C12EDD24C7FCD7
:10172000D09404C0852D0E940C0B2196812E8C1A1A
:10173000C6018C1B9D0BE816F906A4F301C0812E8F
:10174000892D0E940C0B0F5F182D82E090E0A80EEF
:10175000B91E0894E108F10891E0E916F10409F0D6
:10176000BCCF002341F4111624F005C0852D0E9442
:101770000C0B1150D9F7862D805D0E940C0B17FFC2
:1017800013C004C0852D0E940C0B08C0812F99271F
:1017900087FD9095CC27DD27C81BD90B0F5F802FC5
:1017A00090E08C179D0774F3DF91CF911F910F91FB
:1017B000FF90EF90DF90CF90BF90AF909F908F9071
:1017C0007F906F905F9008958DE00E940C0B8AE0EF
:1017D0000E940C0B0895CF93DF93EC0102C00E948E
:1017E0000C0BFE01219684918823C9F7DF91CF91DC
:1017F0000895CF93DF93EC0103C021960E940C0B58
:1018000088818823D1F7DF91CF910895EF92FF92DD
:101810000F931F93CF93DF937B018C01C0E0D0E047
:1018200007FD02C080E301C081E30E940C0B2196FA
:10183000C032D10529F0EE0CFF1C001F111FF0CFA4
:10184000DF91CF911F910F91FF90EF900895EF924C
:10185000FF920F931F93CF93DF937B018C01DC01E9
:10186000CB01ECE1B695A79597958795EA95D1F7C9
:10187000C8E7D3E0FE01E80FF91FE4918E2F0E9424
:101880000C0B812F9927AA27BB27FC01EF70F07062
:10189000EC0FFD1F84910E940C0BD801C70164E17D
:1018A000B695A795979587956A95D1F7FC01EF7046
:1018B000F070EC0FFD1F84910E940C0BC801AA2749
:1018C000BB27FC01EF70F070EC0FFD1F84910E94AC
:1018D0000C0BD801C7014CE0B695A7959795879555
:1018E0004A95D1F7FC01EF70F070EC0FFD1F849169
:1018F0000E940C0BBB27A12F902F8F2DFC01EF70A6
:10190000F070EC0FFD1F84910E940C0BD801C701F1
:1019100024E0B695A795979587952A95D1F7FC0170
:10192000EF70F070EC0FFD1F84910E940C0B8FE0A4
:10193000E822FF24CE0DDF1DFE0184910E940C0BD6
:10194000DF91CF911F910F91FF90EF9008952F920B
:101950003F924F925F926F927F928F929F92AF923F
:10196000BF92CF92DF92EF92FF920F931F93CF938C
:10197000DF936B017C01142F45361CF480E2282E86
:1019800003C0145600E3202EB8E86B2EB3E07B2E84
:1019900000E0A5E03A2EF30185919591A591B491CF
:1019A000F0E35F2E05C0C81AD90AEA0AFB0A53946D
:1019B000C816D906EA06FB06B0F780E3581619F4F4
:1019C000002319F528C0002301F51116F4F4832C27
:1019D0009924812F992787FD9095881599050CF4F6
:1019E000132DC0E0D0E0A12EBB24A7FCB09404C00E
:1019F000822D0E940C0B2196412E4C1AC5018C1B86
:101A00009D0B88169906A4F301C0412E852D0E94D6
:101A10000C0B0F5F142D84E090E0680E791E3A9451
:101A20009CEF391609F0B7CF002341F4111624F0CA
:101A300005C0822D0E940C0B1150D9F78C2D805DB2
:101A40000E940C0B17FF13C004C0822D0E940C0BC8
:101A500008C0812F992787FD9095CC27DD27C81BCB
:101A6000D90B0F5F802F90E08C179D0774F3DF91E7
:101A7000CF911F910F91FF90EF90DF90CF90BF908B
:101A8000AF909F908F907F906F905F904F903F901E
:101A90002F900895882371F080910C05853641F4CC
:101AA00080910D0590910E05909317058093160572
:101AB0005F98089510921705109216055F9A089581
:101AC000409118055091190520910805309109059C
:101AD0002417350710F080E014C05E981EBC0DB4CA
:101AE00007FEFDCF809128059091290501979093DD
:101AF0002905809328058EBD0DB407FEFDCF5E9AA3
:101B000081E042175307A0F45E981EBC0DB407FE97
:101B1000FDCF809128059091290501969093290584
:101B2000809328058EBD0DB407FEFDCF5E9A03C0DD
:101B3000882309F457C080912805909129054C9776
:101B400028F58FE790E09093290580932805209150
:101B500026053091270521503040309327052093EA
:101B600026055E981EBC0DB407FEFDCF8FE78EBD27
:101B70000DB407FEFDCF5E9A5B981EBC0DB407FE48
:101B8000FDCF2EBD0DB407FEFDCF5B9A80912805D9
:101B900090912905853E910528F18FE790E090937B
:101BA00029058093280520912605309127052F5F70
:101BB0003F4F30932705209326055E981EBC0DB439
:101BC00007FEFDCF8FE78EBD0DB407FEFDCF5E9AF9
:101BD0005B981EBC0DB407FEFDCF2EBD0DB407FEF5
:101BE000FDCF5B9A08950E9478070E9495090E9494
:101BF000F3110E941E085F9903C00E94F90904C0F6
:101C00000E94A607969587959093190580931805CD
:101C10000E94F40990932305809322050E942D12BF
:101C200090931B0580931A059C01220F331F280FE8
:101C3000391F220F331F220F331F30931D052093AE
:101C40001C055F9914C080910C05853681F4809144
:101C50001605909117050197909317058093160527
:101C6000892B29F410921705109216055F9A80911E
:101C70000F05883C19F0893C31F403C00E94600DC7
:101C800008950E941F1508955F9A579A80916400E5
:101C90008B7F80936400239A2498259A229A2A980D
:101CA00080E58CBD81E08DBD8EB55A9A529A5A98C6
:101CB00080E48EBD0DB407FEFDCF8FE08EBD0DB468
:101CC00007FEFDCF5A9A5A981EBC0DB407FEFDCFF1
:101CD00080E88EBD0DB407FEFDCF5A9A5B9A539AE9
:101CE0005B9880E48EBD0DB407FEFDCF8FE08EBD06
:101CF0000DB407FEFDCF5B9A5B981EBC0DB407FECA
:101D0000FDCF80E48EBD0DB407FEFDCF5B9A5E9AD9
:101D1000569A0E94C6070E947A0A0E9467120E9481
:101D2000F0070E94E61580E69DE6909309058093F2
:101D3000080510920B0510920A0584E680930C05A5
:101D400010920E0510920D051092170510921605AF
:101D5000109219051092180510921B0510921A0581
:101D600010921D0510921C0510921F0510921E0561
:101D70001092210510922005109223051092220541
:101D80008EE190E0909325058093240583E490E014
:101D900090932705809326058FE790E0909329057F
:101DA000809328055A981EBC0DB407FEFDCF8EE126
:101DB0008EBD0DB407FEFDCF5A9A5B981EBC0DB4C4
:101DC00007FEFDCF83E48EBD0DB407FEFDCF5B9A09
:101DD0005E981EBC0DB407FEFDCF8FE78EBD0DB41F
:101DE00007FEFDCF5E9A08951F93182F809112056C
:101DF000882379F00E948E0887EB93E00E94EB0B1A
:101E0000112319F082EB93E002C08CEA93E00E9468
:101E1000EB0B809113059091140521E08E3292070F
:101E200049F021E08F32920761F08D52914071F4B8
:101E3000812F0AC0112351F08BB1881F8827881F7A
:101E400003C0112319F080E00E944A0D1F910895EC
:101E50001F93182F80911205882379F00E948E0815
:101E60008AEC93E00E94EB0B112319F085EC93E0D0
:101E700002C08FEB93E00E94EB0B809110059091D4
:101E8000110521E08E32920749F021E08F3292074E
:101E900061F08D52914071F4812F0AC0112351F0ED
:101EA0008BB1881F8827881F03C0112319F080E099
:101EB0000E944A0D1F910895CF93DF93EC016CE1CE
:101EC00073E00E942B05882339F4CE016FE173E0A3
:101ED0000E942B05882341F080E00E944A0D0E9459
:101EE0008E0889E295E00EC0CE0161E273E00E94A7
:101EF0002B05882351F081E00E944A0D0E948E0834
:101F00008BE195E00E94EB0BB7C1CE0164E273E078
:101F10000E942B05882309F0AFC1CE0167E273E070
:101F20000E942B05882371F10E944409EC010E9454
:101F300000162EE48032920704F50E948E088BEF83
:101F400094E00E94EB0BCE010E94F90B8FEE94E01F
:101F50000E94EB0B80E29EE460E00E944C0B8AEE54
:101F600094E00E94EB0B88EB98E860E00E944C0B39
:101F70000E94E40B86ED94E0C5CF90930905809311
:101F800008057AC1CE016AE273E00E942B0588231E
:101F900079F10E944409EC010E9400169C0183E043
:101FA000293E380700F10E948E088AEB94E00E94D7
:101FB000EB0BCE010E94F90B8EEA94E00E94EB0B32
:101FC00080E090E060E00E944C0B89EA94E00E947F
:101FD000EB0B88EE93E060E00E944C0B0E94E40B58
:101FE00085E994E08FCF30930B0520930A0544C117
:101FF000CE016DE273E00E942B05882399F05B9877
:102000001EBC0DB407FEFDCF8091260590912705DB
:10201000019690932705809326058EBD0DB407FE8B
:10202000FDCFB6C0CE016FE273E00E942B0588237E
:1020300099F05B981EBC0DB407FEFDCF809126057C
:1020400090912705019790932705809326058EBDD3
:102050000DB407FEFDCF9CC0CE0161E373E00E948A
:102060002B05882399F05A981EBC0DB407FEFDCFAE
:1020700080912405909125050196909325058093E4
:1020800024058EBD0DB407FEFDCFF5C0CE0163E380
:1020900073E00E942B05882399F05A981EBC0DB45A
:1020A00007FEFDCF8091240590912505019790931F
:1020B0002505809324058EBD0DB407FEFDCFDBC042
:1020C000CE0165E373E00E942B05882399F05E98AA
:1020D0001EBC0DB407FEFDCF809128059091290507
:1020E000019690932905809328058EBD0DB407FEB7
:1020F000FDCF86C0CE0167E373E00E942B058823E5
:1021000099F05E981EBC0DB407FEFDCF80912805A6
:1021100090912905019790932905809328058EBDFC
:102120000DB407FEFDCF6CC0CE0169E373E00E94E1
:102130002B05882379F10E944409EC010E940016C6
:102140009C0181389105B8F00E948E0889E794E0DF
:102150000E94EB0BCE010E94F90B88E694E00E94EE
:10216000EB0B80E890E060E00E944C0B0E94E40BD7
:1021700084E594E06EC090932705809326055B98D4
:102180001EBC0DB407FEFDCF2EBD0DB407FEFDCF66
:102190005B9A72C0CE016DE373E00E942B05882329
:1021A00089F10E944409EC010E9400168F3F9105BD
:1021B000C1F0B8F00E948E0888E394E00E94EB0B17
:1021C000CE010E94F90B87E294E00E94EB0B8FEFA7
:1021D00090E060E00E944C0B0E94E40B83E194E0ED
:1021E00038C090932905809328055E981EBC0DB4D5
:1021F00007FEFDCF809126058EBD0DB407FEFDCFF5
:102200005E9A3AC0CE0161E473E00E942B058823F8
:10221000A1F10E944409EC010E9400169C0181E09A
:1022200021303807D8F00E948E0887EF93E00E9493
:10223000EB0BCE010E94F90B86EE93E00E94EB0BB4
:1022400080E091E060E00E944C0B0E94E40B82ED84
:1022500093E00E94EB0B0E94E40B0EC03093250527
:10226000209324055A981EBC0DB407FEFDCF2EBD49
:102270000DB407FEFDCF5A9A81E0DF91CF9108950A
:102280000E942F060E94C3040E94D0110E94440E97
:1022900078940E94EE140E94FF0A0E94000580E0DC
:1022A0000E94851205C088950E944E040E94C105B7
:1022B0000E9461118823B9F30E94F30D0E94A80ABD
:1022C000F7CF80913205882349F120912E05309176
:1022D0002F05C901889690932F0580932E05885E5F
:1022E0009340C8F0205C334030932F0520932E0597
:1022F00080912A0590912B05A0912C05B0912D0578
:102300000196A11DB11D80932A0590932B05A093E2
:102310002C05B0932D051092320581E00895E0E779
:10232000F0E080818D7F80838081826080836091F6
:102330002A0570912B0580912C0590912D0508950B
:10234000E0E7F0E080818D7F808380818260808300
:1023500080912E0590912F05089578941F920F92E9
:102360000FB60F9211248F939F9380913005909117
:10237000310501979093310580933005892B49F4FD
:1023800085E090E0909331058093300581E0809363
:1023900032059F918F910F900FBE0F901F9018954F
:1023A00089E0EAE2F5E0DF011D928A95E9F7E4E6CB
:1023B000F0E080818F7B808382E08093B00087E0B3
:1023C0008093B1001092B2008CE78093B30085E057
:1023D00090E09093310580933005E0E7F0E0808154
:1023E0008260808308950F931F93EAE7F0E0808175
:1023F0008083609135057091360500913705109204
:1024000036051092350510923705208120838827E4
:1024100077FD8095982F24EF31E040E050E00E9456
:10242000791610E02FEF33E0A901049F9001059F7A
:10243000300D149F300D1124442737FD4095542F43
:102440000E94CE168AEF90E0821B930B9093340586
:10245000809333051F910F910895809133059091DA
:102460003405089578941F920F920FB60F9211249D
:102470002F933F938F939F9380917A0080648093F2
:102480007A00809138058150809338058823B1F413
:1024900080E180933805809137058F5F8093370501
:1024A0008091780090917900209135053091360522
:1024B000820F931F90933605809335059F918F91DE
:1024C0003F912F910F900FBE0F901F90189586E0AF
:1024D000E3E3F5E0DF011D928A95E9F780E180935F
:1024E0003805E4E6F0E080818E7F808310927E00E4
:1024F00010927B0080E480937C00EAE7F0E08FE8B4
:102500008083808180648083089580933905282F9B
:1025100030E0220F331FF90183E0EE0FFF1F8A9591
:10252000E1F7E20FF31FA8E0B5E0E750FC4F8EE0C3
:1025300001900D928150E1F70895FF920F931F9340
:10254000F82E8B010E948E088BE497E00E94EB0B23
:102550008F2D805D0E940C0B88E497E00E94EB0BAE
:10256000D801ED91FC91EE0FFF1FE15EFE4F8081DF
:1025700091810E94EB0BF8018281882321F080E495
:1025800097E00E94EB0B1F910F91FF9008951F930E
:10259000CF93DF93182FEB010E948E0889E997E013
:1025A0000E94EB0B812F90E060E00E944C0B809129
:1025B0003905181721F48EE897E00E94EB0B8AE8A2
:1025C00097E00E94EB0B81E897E00E94EB0B8CE711
:1025D00097E00E94EB0B8FE697E00E94EB0B86E6FC
:1025E00097E00E94EB0B8C81843629F489E597E013
:1025F0000E94EB0B0BC082E597E00E94EB0B8D81F4
:102600009E8165E00E944C0B0E94E40BDF91CF910C
:102610001F910895282F30E0220F331FF90143E066
:10262000EE0FFF1F4A95E1F7E20FF31FE750FC4F53
:10263000A8E0B5E08EE00D9001928150E1F70E9494
:1026400062070895CF92DF92EF92FF920F931F934C
:10265000CF93DF93EC0164E473E00E942B058823A1
:1026600009F434C10E944409EC018881882381F473
:102670000E948E088BE996E00E94EB0BE0910F051B
:10268000F0E0EE0FFF1FEF51FE4F808191811BC1E3
:10269000CE0167E473E00E942B05882351F00E946D
:1026A0008E088CE896E00E94EB0B84E680930C0584
:1026B0008BC1CE0169E473E00E942B05882391F160
:1026C0000E9444098C010E940016EC01F8018081EF
:1026D000882311F0D7FF10C00E948E088DE696E087
:1026E0000E94EB0BC8010E94F90B8FE496E00E9458
:1026F000EB0B8BE396E0E7C00E948E0882E396E046
:102700000E94EB0BCE0160E00E944C0B8AE296E047
:102710000E94EB0B85E680930C05C0930D05D093CA
:102720000E0552C1CE016CE473E00E942B05882394
:1027300041F00E948E0882E196E00E94EB0B88EC4B
:10274000B0C0CE016FE473E00E942B05882399F09E
:1027500080E00E944A0D0E948E088DEF95E00E9455
:10276000EB0B8AED95E00E94EB0B81EB95E00E946C
:10277000EB0B89EC96C0CE0162E573E00E942B055D
:10278000882341F4CE0165E573E00E942B05882380
:1027900009F479C0C980F0EDCF0E0E944409EC0124
:1027A00081E0C81629F003E1E02E05E0F02E04C018
:1027B00010E1E12E15E0F12E8881882309F45EC036
:1027C000CE0168E573E00E942B05D82ECE016AE5A4
:1027D00073E00E942B05882329F0DD24D3940DE2B9
:1027E00011E002C00CE211E0CE016DE573E00E9441
:1027F0002B05882321F0DD24D3940EE211E0CE01D5
:1028000060E673E00E942B05882321F0DD24D39439
:102810000FE211E00E948E08DD2071F486E297E05D
:102820000E94EB0BCE010E94F90B87E097E00E941B
:10283000EB0B83EF96E047C00E944409EC018881CE
:102840008823B9F0CE0163E673E00E942B0588234C
:1028500011F081E00FC089ED96E00E94EB0BCE01F4
:102860000E94F90B8EEB96E00E94EB0B8AEA96E051
:102870002AC080E0F7011183008382838C2DB70189
:102880000E949D12A1C0CE0165E673E00E942B0557
:10289000882351F00E948E088DE995E00E94EB0B91
:1028A0008AEC80930F0590C00E948E0880E895E026
:1028B0000E94EB0BCE010E94F90B8CE795E00E9481
:1028C000EB0B88E695E00E94EB0B7EC0CE0168E63C
:1028D00073E00E942B05882371F10E9444098C014A
:1028E0000E940016282FF8018081882311F420917E
:1028F000390520933905822F90E0880F991FFC013C
:10290000A3E0EE0FFF1FAA95E1F7E80FF91FA8E07B
:10291000B5E0E750FC4F8EE001900D928150E1F759
:102920000E948E088AE595E00E94EB0B80913905A4
:1029300090E060E047C0CE016BE673E00E942B059B
:10294000882301F10E9444098C010E940016282F5F
:10295000F8018081882321F48FEF68E075E00FC0D3
:10296000622F792F660F771FCB01E3E0880F991F45
:10297000EA95E1F7680F791F67507C4F822F0E941C
:10298000C71222C0CE016EE673E00E942B05882399
:10299000E1F00E9444098C010E940016F82EF80113
:1029A0008081882311F4F09039058F2D0E940A133D
:1029B0000E948E088AE495E00E94EB0B8091390515
:1029C00090E06F2D0E944C0B81E0DF91CF911F9121
:1029D0000F91FF90EF90DF90CF9008951F930E948A
:1029E0006D078091F4038630E9F01092390512E109
:1029F00010C0819FC00111248B509C4F68E375E08B
:102A000042E150E00E941E16809139058F5F80934D
:102A10003905809139058A3060F386E08093F403AC
:102A20000E94620710923905A8E0B5E0E9EFF3E0F3
:102A30008EE001900D928150E1F71F9108951F9350
:102A40005F9B02C082E32DC0809181038433D1F16A
:102A5000853330F4823359F0833309F0B5C024C094
:102A6000853309F44EC0863309F0AEC09CC08EE1B8
:102A700090E090932505809324055A981EBC0DB4D0
:102A800007FEFDCF8EE18EBD0DB407FEFDCF5A9A35
:102A900080E69DE690930905809308050E94600DED
:102AA00083E38093810390C080911805909119056C
:102AB00086559D46459718F00E94600D85C08AE0B6
:102AC0008093820380911805909119059093840357
:102AD0008093830385E3809381035B981EBC0DB4D0
:102AE00007FEFDCF809126059091270501979093D1
:102AF0002705809326058EBD0DB407FEFDCF5B9A9A
:102B000063C0809118059091190590938603809376
:102B1000850384E3809381035B981EBC0DB407FE9C
:102B2000FDCF809126059091270501979093270569
:102B3000809326058EBD0DB407FEFDCF5B9A85E11F
:102B400098E00E94EB0B809183039091840360E0F6
:102B50000E944C0B0E94E40B8DE098E00E94EB0B6E
:102B6000809185039091860360E00E944C0B0E9447
:102B7000E40B85E098E00E94EB0B80918303909139
:102B800084032091850330918603821B930B60E0C0
:102B90000E944C0B0E94E40B809182038150809331
:102BA00082038F5F89F480E00E944A0D82E3809364
:102BB000810388EC80930F0510E00E94E40B1F5FF7
:102BC0001431D9F70E942D091F9108953A9A42981D
:102BD0003B9A43980895882311F0429A08954298A9
:102BE0000895882311F0439A089543980895529ABE
:102BF0005A980895882311F05A9A08955A9808957A
:102C0000FC0188279927E89421912032E9F32930A3
:102C100010F02E30C8F32B3241F02D3239F4689485
:102C200004C00E947116820F911D219120532A30F9
:102C3000C0F31EF4909581959F4F0895FB01DC0130
:102C400002C005900D9241505040D8F70895FC0104
:102C50008191861721F08823D9F799270895319714
:102C6000CF010895FB01DC0101900D920020E1F7F6
:102C70000895A0E0B0E0EFE3F6E10C9407177C01C3
:102C8000EB018A01690109C0CE012196F60109957F
:102C9000F70181937F010150104001151105A1F743
:102CA000CDB7DEB7E8E00C942317A0E0B0E0EBE589
:102CB000F6E10C940717EC017B018A01690109C058
:102CC000CE012196F70161917F01F601099501502E
:102CD000104001151105A1F7CDB7DEB7E8E00C945F
:102CE00023177AE0979F902D879F802D910D1124B7
:102CF0000895629FD001739FF001829FE00DF11D46
:102D0000649FE00DF11D929FF00D839FF00D749F65
:102D1000F00D659FF00D9927729FB00DE11DF91F11
:102D2000639FB00DE11DF91FBD01CF01112408956E
:102D3000AA1BBB1B51E107C0AA1FBB1FA617B707E1
:102D400010F0A61BB70B881F991F5A95A9F78095FD
:102D50009095BC01CD010895A1E21A2EAA1BBB1BC0
:102D6000FD010DC0AA1FBB1FEE1FFF1FA217B30757
:102D7000E407F50720F0A21BB30BE40BF50B661F6D
:102D8000771F881F991F1A9469F760957095809531
:102D900090959B01AC01BD01CF01089597FB092ED1
:102DA00005260ED057FD04D0D7DF0AD0001C38F41A
:102DB00050954095309521953F4F4F4F5F4F089567
:102DC000F6F790958095709561957F4F8F4F9F4F47
:102DD000089585FD0FC0806291110CC081568A5103
:102DE000E0F708959111089581568A5108F48052B0
:102DF000855808959927882708952F923F924F92DA
:102E00005F926F927F928F929F92AF92BF92CF927A
:102E1000DF92EF92FF920F931F93CF93DF93CDB783
:102E2000DEB7CA1BDB0B0FB6F894DEBF0FBECDBFFB
:102E300009942A88398848885F846E847D848C84CC
:102E40009B84AA84B984C884DF80EE80FD800C81D5
:102E50001B81AA81B981CE0FD11D0FB6F894DEBFB8
:0C2E60000FBECDBFED010895F894FFCF28
:102E6C00436D643E20004D41001B004845003F006F
:102E7C00444500556E7265636F676E697A656420B0
:102E8C00636F6D6D616E64202800290D0A000000CF
:102E9C000000000000000000000000000000000026
:102EAC000000000000000000000000000000000016
:102EBC000000000000000000000000000000000006
:102ECC0000000000000000000000000000000000F6
:102EDC0000000000000000000000000000000000E6
:102EEC0000000000000000000000000000000000D6
:102EFC0000000000000000000000000000000000C6
:102F0C0000000000000000000000000000000000B5
:102F1C0000000000000000000000000000000000A5
:102F2C000000000000000000000000000000000095
:102F3C000000000000000000000000000000000085
:102F4C000000000000000000000000000000000075
:102F5C000000000000000000000000000000000065
:102F6C0080000000000000000000000000000000D5
:102F7C000000000000000000000000000000000045
:102F8C000000000000000000000000000000000035
:102F9C000000000000000000000000000000000025
:102FAC000000000000000000000000000000000015
:102FBC000000000000000000000000000000000005
:102FCC0000000000000000000000000000000000F5
:102FDC0000000000000000000000000000000000E5
:102FEC0000000000000000000000000000000000D5
:102FFC0000000000000000000000000000000000C5
:10300C0000000000000000000000000000000000B4
:10301C0000000000000000000000000000000000A4
:10302C000000000000000000000000000000000094
:10303C000000000000000000000000000000000084
:10304C000000000000000000000000000000000074
:10305C000000000000000000000000000000000064
:10306C00434C002009004261642073637265656EF5
:10307C002073656C65637465642028004F46001BE3
:10308C00004F4E00585800465200504F0055004417
:10309C000057004E002B002D004643570046465764
:1030AC00005057004D4F005200525400434600430D
:1030BC0041004931004932005500584300504F003F
:1030CC0045530050004357004C530050530053538A
:1030DC0000A007B407BE07CA07D107E307FF070024
:00000001FF
